:100000000C9434000C9451000C9451000C94510049
:100010000C9451000C9451000C9451000C9451001C
:100020000C9451000C9451000C9451000C9451000C
:100030000C9451000C9451000C9451000C945100FC
:100040000C9451000C9451000C9451000C945100EC
:100050000C9451000C9451000C9451000C945100DC
:100060000C9451000C94510011241FBECFEFD8E026
:10007000DEBFCDBF11E0A0E0B1E0E6EEF1E002C0EE
:1000800005900D92A030B107D9F721E0A0E0B1E0D2
:1000900001C01D92A230B207E1F70E94EC000C945F
:1000A000F1000C94000084E690E0909301018093AD
:1000B00000018FE184B9259A0895181619066CF489
:1000C00020E030E0EFE9FFE03197F1F700C00000F9
:1000D0002F5F3F4F28173907A9F70895EF92FF9236
:1000E0000F931F93CF93DF93C0E0D0E001E010E0C7
:1000F00085B190E078010C2E02C0EE0CFF1C0A9432
:10010000E2F79C01209530952E213F2182279327ED
:1001100085B9C430D10509F450C080910001909197
:1001200001010E945D0025B1C7018095909530E0E6
:100130008223932385B92196C530D105C9F6C4E041
:10014000D0E001E010E0C8010C2E02C0880F991F1A
:100150000A94E2F785B980910001909101010E9413
:100160005D00219780F715B8809100019091010101
:100170000E945D008FE185B980910001909101019D
:100180000E945D0015B880910001909101010E94CC
:100190005D0080910001909101011816190634F458
:1001A0000A9790930101809300010FC084E690E0CC
:1001B000909301018093000108C085B1E094F09410
:1001C00090E0E822F922E5B8BACFDF91CF911F91F4
:1001D0000F91FF90EF9008950E9453000E946E00CF
:0601E000FDCFF894FFCFF3
:00000001FF
