S01B000041726475696E6F204743432050726F6A6563742E7372656353
S11300000C9434000C9449000C9449000C9449005D
S11300100C9449000C9449000C9449000C94490038
S11300200C9449000C9449000C9449000C94490028
S11300300C9449000C9449000C9449000C94490018
S11300400C9449000C9449000C9449000C94490008
S11300500C9449000C9449000C9449000C944900F8
S11300600C9449000C94490011241FBECFEFD8E032
S1130070DEBFCDBF11E0A0E0B1E0E8ECF0E002C0EB
S113008005900D92A030B107D9F70E944B000C9453
S113009062000C94000080E285B9289A2FEF33ECBB
S11300A099E0215030409040E1F700C0000015B8BD
S11300B02FEF33EC99E0215030409040E1F700C03D
S10B00C00000EACFF894FFCF21
S9030000FC
