:100000000C9434000C9451000C9451000C94510049
:100010000C9451000C9451000C9451000C9451001C
:100020000C9451000C9451000C9451000C9451000C
:100030000C9451000C9451000C9451000C945100FC
:100040000C9451000C9451000C9451000C945100EC
:100050000C9451000C9451000C9451000C945100DC
:100060000C9451000C94510011241FBECFEFD8E026
:10007000DEBFCDBF11E0A0E0B1E0E4E2F1E002C0FC
:1000800005900D92A030B107D9F721E0A0E0B1E0D2
:1000900001C01D92A230B207E1F70E9487000C94C4
:1000A00090000C940000181619066CF420E030E063
:1000B000EFE9FFE03197F1F700C000002F5F3F4FFD
:1000C00028173907A9F7089580E285B980910001C2
:1000D000909101010E94530015B880910001909108
:1000E00001010E94530080910001909101011816B6
:1000F000190634F4C297909301018093000108958A
:1001000088EE93E09093010180930001089588EEBA
:1001100093E090930101809300010E946400FDCF61
:04012000F894FFCF81
:00000001FF
